{
  "_format": "hh-sol-artifact-1",
  "contractName": "EtherWallet",
  "sourceName": "contracts/EtherWallet.sol",
  "abi": [
    {
      "inputs": [],
      "stateMutability": "nonpayable",
      "type": "constructor"
    },
    {
      "inputs": [],
      "name": "balanceOf",
      "outputs": [
        {
          "internalType": "uint256",
          "name": "",
          "type": "uint256"
        }
      ],
      "stateMutability": "view",
      "type": "function"
    },
    {
      "inputs": [],
      "name": "deposit",
      "outputs": [],
      "stateMutability": "payable",
      "type": "function"
    },
    {
      "inputs": [],
      "name": "owner",
      "outputs": [
        {
          "internalType": "address payable",
          "name": "",
          "type": "address"
        }
      ],
      "stateMutability": "view",
      "type": "function"
    },
    {
      "inputs": [
        {
          "internalType": "address payable",
          "name": "receiver",
          "type": "address"
        },
        {
          "internalType": "uint256",
          "name": "amount",
          "type": "uint256"
        }
      ],
      "name": "withdraw",
      "outputs": [],
      "stateMutability": "nonpayable",
      "type": "function"
    }
  ],
  "bytecode": "0x608060405234801561001057600080fd5b5061002b670ad003451420725960c01b61008a60201b60201c565b6100456796756c344429ffdf60c01b61008a60201b60201c565b336000806101000a81548173ffffffffffffffffffffffffffffffffffffffff021916908373ffffffffffffffffffffffffffffffffffffffff16021790555061008d565b50565b6104b98061009c6000396000f3fe60806040526004361061003f5760003560e01c8063722713f7146100445780638da5cb5b1461006f578063d0e30db01461009a578063f3fef3a3146100a4575b600080fd5b34801561005057600080fd5b506100596100cd565b60405161006691906102cc565b60405180910390f35b34801561007b57600080fd5b50610084610111565b6040516100919190610328565b60405180910390f35b6100a2610135565b005b3480156100b057600080fd5b506100cb60048036038101906100c691906103a0565b61014b565b005b60006100e367024182c29629a44360c01b6102b0565b6100f767abf83955d26e685360c01b6102b0565b61010b67199ef87285fa544d60c01b6102b0565b47905090565b60008054906101000a900473ffffffffffffffffffffffffffffffffffffffff1681565b61014967e5f8d379cc62dab960c01b6102b0565b565b61015f67eb626e3a62c398d860c01b6102b0565b610173672fba1ccc559a46f060c01b6102b0565b61018767716d6c6c9ceac6e360c01b6102b0565b61019b67d8fdc6641722f39f60c01b6102b0565b60008054906101000a900473ffffffffffffffffffffffffffffffffffffffff1673ffffffffffffffffffffffffffffffffffffffff163373ffffffffffffffffffffffffffffffffffffffff1614610229576040517f08c379a000000000000000000000000000000000000000000000000000000000815260040161022090610463565b60405180910390fd5b61023d6746eea209f250cb2e60c01b6102b0565b610251678b49803c9042c16160c01b6102b0565b61026567f37d69b40fc7835260c01b6102b0565b8173ffffffffffffffffffffffffffffffffffffffff166108fc829081150290604051600060405180830381858888f193505050501580156102ab573d6000803e3d6000fd5b505050565b50565b6000819050919050565b6102c6816102b3565b82525050565b60006020820190506102e160008301846102bd565b92915050565b600073ffffffffffffffffffffffffffffffffffffffff82169050919050565b6000610312826102e7565b9050919050565b61032281610307565b82525050565b600060208201905061033d6000830184610319565b92915050565b600080fd5b61035181610307565b811461035c57600080fd5b50565b60008135905061036e81610348565b92915050565b61037d816102b3565b811461038857600080fd5b50565b60008135905061039a81610374565b92915050565b600080604083850312156103b7576103b6610343565b5b60006103c58582860161035f565b92505060206103d68582860161038b565b9150509250929050565b600082825260208201905092915050565b7f4f6e6c79206f776e65722063616e20776974686472617720746865204574686560008201527f7200000000000000000000000000000000000000000000000000000000000000602082015250565b600061044d6021836103e0565b9150610458826103f1565b604082019050919050565b6000602082019050818103600083015261047c81610440565b905091905056fea2646970667358221220bfc5b3cdf1e9648d89687eb8c6b5c5c40bb3241f0bc2285487db29428096764764736f6c63430008110033",
  "linkReferences": {},
  "deployedLinkReferences": {}
}